:020000040000FA
:100000000F0EC16E816A9380896A92909292929447
:100010009296929800EE00F0B40E156E320E146EA9
:1000200000000000000000000000142EF9D7152E7B
:10003000F5D7E9B237D0E9B00AD081B0FED700D009
:10004000896AE9B202D0E92AE7D7E96AE5D7898067
:1000500089B615D0B40E156E81A0F2D7640E146E59
:1000600081A0EED700000000000000000000142E68
:10007000F7D7152EF1D7893681A0E2D7E9D7B40E8C
:10008000156E81A0DDD7640E146E81A0D9D7000053
:100090000000000000000000142EF7D7152EF1D745
:1000A000896AD5D7898689B015D0B40E156E81A01E
:1000B000C7D7640E146E81A0C3D7000000000000F3
:1000C00000000000142EF7D7152EF1D7893281A039
:1000D000B7D7E9D7B40E156E81A0B2D7640E146EEF
:1000E00081A0AED700000000000000000000142E28
:0A00F000F7D7152EF1D7896AD5D78E
:0200FA00000004
:020000040030CA
:0100010008F6
:010003001EDE
:010006008178
:00000001FF
