:020000040000FA
:1000000000EE0AF010EE0BF0080E0A6E080E0B6EF2
:1000100002D841EF00F0010EE76415EF00F0EF5059
:10002000E76227EF00F021EF00F0E7661AEF00F03B
:10003000002A1200EF500026E906E906E106E10673
:100040001200002AE906E906E106E1061200EF5077
:10005000E92AE92AEF6EEF06E750E12AE12AE76E86
:10006000E706D9DFEF50E92AE92AEF6EEF06E750FD
:10007000E12AE12AE76ECFDFE906E906E106E106BB
:0200800012006C
:0200820000007C
:020000040030CA
:0100010008F6
:010003001EDE
:00000001FF
